:020000040000FA
:06000000C1EF10F0120038
:020006001200E6
:0600080082EF0DF0120072
:01000E0000F1
:01000F0000F0
:0400100000000000EC
:0600180044EF0DF01200A0
:02001E000900D7
:100020009B22000000010000280000008022000048
:10003000E50000001B000000100000008601000029
:10004000040000001F220000000F000061000000FB
:10005000FE21000028010000210000000F00000028
:100060008C01000001000000EB210000690100008C
:1000700013000000CB210000490100002000000017
:0C0080000E0000008B01000001000000D9
:04008C006BEC04F025
:100090008CDB11AE02D01268136831DB13E29ADBFD
:1000A0005ADB04E6050E105C000E115806E2020E43
:1000B000DB2A030EF5E3DB2AF3D7DF2A010EE8E3A0
:1000C000DB2AE6D7040EE15C02E2E16AE552E16E6A
:1000D000CCD26BEC04F069DB11AE02D0126813686D
:1000E0000EDB13E277DB37DB04E6EE0E105C000E6E
:1000F000115806E2020EDB2A030EF5E3DB2AF3D7E2
:10010000DF2A010EE8E3DB2AE6D7040EE15C02E217
:10011000E16AE552E16EA9D2E4DBF00B7BDBFE0E77
:10012000DB38F00B811288DAA0D2D2DB936A190E89
:100130005FDB0F0E8116F80E81160F0E8116300E42
:1001400069DB300E67DB300E65DB818A75DA280EDD
:10015000E66EE2DFE5520C0EE66EDEDFE552E552BA
:1001600084D2ACDB010EDB6A819459DBE76E010EB1
:10017000E7CFDBFF819653DBDF6E010EDB50DF1232
:100180008196010E60DADF50106E020EE15C02E231
:10019000E16AE552E16E105068D29ADBDF6AE1DF76
:1001A000DF6EDFBEFCD7DF50E5525FD29ADB8112F3
:1001B0008186050E48DA8196050E45DA56D250DA68
:1001C0008194050E40DAA7DA50D24ADA8184050E0E
:1001D0003ADAA1DA819449D24AD349D341DAFD0E01
:1001E000DBCFF6FFFE0EDBCFF7FF0800F5500DE08A
:1001F000FD0EDBCFF6FFDB2AFE0EDBCFF7FF01E3C0
:10020000DB2A0800F5502ADBEAD72FD261DBFD0E8E
:10021000DB500F0B106EFE0EDB50010B400DF35048
:100220001024DF6E7F0EDF14800FDF6EDFCFE6FF5E
:10023000C6DFE552E55219D2010EE66EC0DFE55287
:10024000E66AE66A77EF04F00BDA050EE126010EA6
:10025000F36EDB6EBFDA040EDB6ADF6ADFCF10F00D
:10026000116A10BE1168A8DA11501318E8AE02D056
:10027000133404D01250105C135011581FE2FD0EBD
:10028000DBCF10F0FE0EDBCF11F0126A136A11AE55
:1002900002D012681368D950010FE96EDACFEAFF75
:1002A00010C00BF011C00CF012C00DF013C00EF016
:1002B000EADA06EC10F0F0DADF2AD0D7010EDBCF55
:1002C00010F0020EDBCF11F0030EDBCF12F0040EA4
:1002D000DBCF13F010C006F011C007F012C008F019
:1002E00013C009F0050EE15C02E2E16AE552E16E3D
:1002F000BCD1E4DAFB0EDBCF10F0FC0EDBCF11F04B
:10030000FD0EDBCF12F0FE0EDBCF13F010501110FC
:100310001210131003E1300EA1DA36D0D950FB0FC2
:1003200023DA01E627DA05E22D0E98DAD950FB0F21
:10033000D9D9DE52070EDD6E46DAE8AE02D01034AF
:1003400003D0E750D88010541FE226DA14BE156897
:1003500080D945DA6DDA17DA0BE0010EDF6EDB04C7
:10036000186E196A18BE196892D962DAAED903D02C
:10037000DF5002E0300E72DA0FDA14BE156869D968
:10038000D950FB0F7BD9D8D7020EE15C02E2E16ABB
:10039000E552E16E6AD164D9D6D9D950F90F62DA43
:1003A000EECFE6FFEECFE6FFEECFE6FFEFCFE6FFC4
:1003B000A0DFE552E552E552E55257D151D9C3D9F4
:1003C000FB0EDBCFE6FFFC0EDBCFE6FF07DFE552DF
:1003D000E5524BD145D97BCF10F07CCF11F0040E04
:1003E000D89010361136E806FBE1A1D9FE0EDBCF1E
:1003F000EFFF7D2B000E7E2338D16ADADF6ADFCF74
:1004000010F0100EE76E1018E8AE02D0E73402D0FC
:10041000E750105C18E2DFCFE9FFEA6AE9BEEA685C
:10042000410EE9260F0EEA22200EEF6EDFCFE9FF24
:10043000EA6AE9BEEA68510EE9260F0EEA22200EAA
:10044000EF6EDF2ADCD7E55210D142DA0F014051BE
:10045000030A29E0010A1CE0030A0CE0010A32E168
:100460004ADA080EDF5C03E2DF50C8D9FAD70F0181
:10047000010E17D0080EE66EE66A18D9080EDF5C8A
:1004800004E2080EDF24BAD9F9D70F01020E09D011
:100490001ADA080EDF5C03E2DF50B6D9FAD70F0193
:1004A000030E406F10D0080EE66E010EE66EFED809
:1004B000080EDF5C04E2080EDF24A6D9F9D70F018D
:1004C000406B01D0406BE552D0D002DA0F014051B1
:1004D000010A0DE0010A15E10EDA100EDF5C03E2FD
:1004E000DF508CD9FAD70F01010E406F0BD0EBD93A
:1004F000100EDF5C03E2DF5087D9FAD70F01406BA3
:1005000001D0406BE552B1D0E3D9F5D9100EDF5CD4
:1005100003E2DF5073D9FAD7D6D9100EDF5C03E2BD
:10052000DF5072D9FAD7E552A0D09AD8C2D8FC0EC3
:10053000DB500A0802E1610E05D0FC0EDB500D080D
:1005400005E1640EF36EFC0EF3CFDBFF7BCF10F002
:100550007CCF11F0040ED89010361136E806FBE17E
:10056000E6D8FC0EDBCFEFFF80D0A8D9A2D8F90ED9
:10057000DBCF10F0FA0EDBCF11F01ED910501110A6
:100580001210131003E1300E0CD936D0D950F90FE8
:10059000EBD801E6EFD805E22D0E03D9D950F90FBB
:1005A000A1D8DE52070EDD6E0ED9E8AE02D01034AF
:1005B00003D0E750D88010541FE2EED814BE15685F
:1005C00048D80DD940D9DFD80BE0010EDF6EDB042F
:1005D000186E196A18BE19685AD835D976D803D05A
:1005E000DF5002E0300EDDD8D7D814BE156831D800
:1005F000D950F90F43D8D8D7020EE15C02E2E16A84
:10060000E552E16E32D02CD854D8FB0EDBCFF6FF8A
:10061000FC0EDBCFF7FF0800F5500DE0FB0EDBCF43
:10062000F6FFDB2AFC0EDBCFF7FF01E3DB2A080035
:10063000F550B7D8EAD719D08186010ED9D881965E
:10064000010EF8EF03F0E66EE66AE66AE66A1EDD82
:1006500056D114C0E6FF15C0E6FF10D955EF04F0DF
:10066000D9CFE6FFE1CFD9FF1200E552E7CFD9FF9E
:100670001200EA22EF50F2D8DF2A1200F3D8AFD8E6
:1006800002D93EEC10F008D9010EDB06120018C0AA
:10069000E6FF19C0E6FFF2D806C014F007C015F057
:1006A00008C016F009C017F0EFEF03F020D9DF6A99
:1006B0001200FE0EDB50010B0F017B6F7C6BFD0EF9
:1006C000DB500F0B7D6F7E6B1200DBCF09F03EEC31
:1006D00010F0EBD8300E1026000E11221222132239
:1006E00010501200BFD8000EEE6CEF1EEE22EF1E6F
:1006F000EE22EF1EEF22ED52ED52ED521200D950D4
:10070000FB0FB0D8EE50105CEE501158EE5012585E
:10071000EE5013581200FE0EDBCFE6FF47DDE55228
:10072000FE0EDB38F00BE66E41DDE5521200410EA5
:1007300010260F0E112210500F017D25E96E115069
:100740007E21EA6E1200FD0EDBCFE6FFFE0EDBCF50
:10075000E6FF77EF04F0020EDBCF10F0030EDBCFE5
:1007600011F0D890115012007DD8D890030EEB50A4
:10077000000A1200000EEE5C000EEE58000EEE585D
:10078000000EEE581200DBCF09F03EEC10F00650E0
:100790000710081009101200010EDB04146E156A10
:1007A0001200E66E17DEE5521200DECF10F0DDCF4C
:1007B00011F0126A136A1200FB0EDBCF12F0FC0E6E
:1007C000DBCF13F01200010EDBCF10F0000EE76E4E
:1007D00010181200020EDB6A030EDB6A120006C05C
:1007E0000BF007C00CF008C00DF009C00EF01200AD
:1007F000E66EE66AE66AE66A6CDC81D0EA6A410F78
:10080000E96E0F0E39EF03F0EA6A510FE96E0F0E31
:1008100039EF03F0811210DF0F0E811612000F0E58
:1008200012DF0F0E811281860EDF0F0E811412006F
:10083000FB0EDBCF06F0FC0EDBCF07F0FD0EDBCFAF
:1008400008F0FE0E1200F90EDBCF06F0FA0EDBCF39
:1008500007F0FB0EDBCF08F0FC0E1200E66EBDDCED
:10086000E5521200E96EFF0EDA20EA6E1200F8DEA1
:10087000FE0EDBCFE6FFA9DCE552F7D60A0EE66EE8
:10088000E66AE2DC3CD0EECF06F0EECF07F0EECF2A
:1008900008F0EFCF09F0120005C0EDFF04C0EDFF36
:1008A00003C0EDFF02C0EFFF120006C010F007C04A
:1008B00011F008C012F009C013F01200D1DE020ED0
:1008C000E126DF6A1200E66A010EE66E56EF03F0DB
:1008D000C7DEE6521200C4DE040EE126DE6ADD6ADF
:1008E0001200BEDE0F0E8116FE0EDB5012008EDCF3
:1008F000E552E5521200E66AE66A56EF03F0E55269
:08090000E552E552E552120038
:08090800D9CFE6FFE1CFD9FFD2
:10091000020EE126DE6ADD6A5AD8E80EE66E030EA4
:10092000E66E0CD8E552E55201015405FDE106DA08
:100930007BD8EFD868D9EAEC06F0F6D7D9CFE6FF36
:10094000E1CFD9FF040EE126DE6ADD6ADECF10F0CA
:10095000DDCF11F0FD0EDBCF12F0FE0EDBCF13F07A
:1009600011501318E8AE02D0133404D01250105CAA
:10097000135011581DE2020EDB6A030EDB6A020EF1
:10098000DBCF10F0030EDBCF11F0D890115004E64E
:10099000EE0E105C000E115806E2020EDB2A030E6A
:1009A000EEE3DB2AECD7DF2A010ED0E3DB2ACED739
:1009B000040EE15C02E2E16AE552E16EE552E7CF46
:1009C000D9FF1200956A836A936A816A1200010155
:1009D0003E69F8DF44EC0CF00A0EE66EE66AE66E5D
:1009E000E66ACEEC0BF0E552E552E552E55295ECA5
:1009F00000F0C5EC06F03CEC0DF0FAEC0DF01CEC50
:100A000001F0FDEC01F0F40EE66E010EE66E96DFED
:100A1000E552E552660EE66EB70EE66ED2EC08F0D1
:100A2000E552E5529EEF06F001013E51030A54E003
:100A3000010A3DE0030A23E0010A0DE0FF0A01E09C
:100A4000120040C145F13FC142F140C143F184D998
:100A500001013E6B120042516CD901E377D9460780
:100A60004551000809E36CEC0CF041C145F141C16E
:100A700043F10101010E3E6F77D94AE140D0425166
:100A800058D901E363D94607455100080DE340C139
:100A900045F160EC0CF066EC0CF040C142F13FC156
:100AA00043F10101020E3E6F5FD932E128D042517D
:100AB00040D901E34BD94607455100080AE341C13B
:100AC00045F13CD95AEC0CF041C142F10101030E51
:100AD0003E6F4AD91DE113D042512BD901E336D9DB
:100AE00046074551000809E340C145F135D93FC1EA
:100AF00042F140C143F101013E6B36D909E144ECBA
:100B00000CF02AD901010A0E476FC80E3E6F120081
:100B1000120001013E51CC0A5BE0070A3FE0010AE6
:100B200023E0030A07E0010A01E01200C90E3E6F4C
:100B3000ACEF06F04751FDD803E3140E466F4707AC
:100B400046074751000801E33E6911D90AE1010156
:100B5000CA0E3E6F54EC0CF06CEC0CF001010A0E66
:100B6000476F02D94FE14AD04751E3D803E3140E4F
:100B7000466F470746074751000801E33E69F7D82B
:100B80000AE10101CB0E3E6F60EC0CF066EC0CF05C
:100B900001010A0E476FE8D835E130D04751C9D876
:100BA00003E3140E466F470746074751000801E369
:100BB0003E69DDD80AE10101CC0E3E6F5AEC0CF023
:100BC00066EC0CF001010A0E476FCED81BE116D07F
:100BD0004751AFD803E3140E466F47074607475106
:100BE000000801E33E69C3D807E10101C90E3E6F69
:100BF000B3D801010A0E476FB7D804E101012C0EEA
:100C00003E6F1200120001013E512F0A49E0010A15
:100C100029E0030A09E0010A01E012002D0E3E6FEF
:100C200044EC0CF04CEF0CF03F519AD807E1010175
:100C30003F2B3F51630802E2010E3F6F030E71D854
:100C400007E101013F07010E3F5D02E2630E3F6FC6
:100C50008ED805E101012E0E3E6F51EC0CF084D8C8
:100C60003DE139D040517CD807E10101402B405192
:100C7000630802E2010E406F030E53D807E1010141
:100C80004007010E405D02E2630E406F70D805E13F
:100C900001012F0E3E6F4EEC0CF066D81FE11BD009
:100CA00041515ED807E10101412B4151630802E245
:100CB000010E416F030E35D807E101014107010E16
:100CC000415D02E2630E416F52D803E101012C0E37
:100CD0003E6F4AD803E101013E6912001200010192
:100CE0006C0508E16C6B0001855104E181C040F1A5
:100CF00082C041F16BC110F0116A126A136A6BC1B4
:100D0000E6FF11C0E6FF12C0E6FF13C0E6FF0F0EBC
:100D1000E66EE66AB5EC02F0146E060EE15E145063
:100D20001200E66EE66A41EC07F0E552E552010872
:100D3000120020D80101465100081200320EE66E62
:100D4000E66A69EC09F0E552E552120042074307F2
:100D5000140E466F4507120054EC0CF072EF0CF0C5
:100D600009D8020E91EF06F0000E91EF06F0010E89
:100D700091EF06F0E66EE66A80EC0BF0E552E55284
:020D800012005F
:0E0D82000F0E946E82681200CF0E9414946EC1
:100D90008268120056D980D901E679D915E263D963
:100DA000826E70D957D901E672D909E23DD902E1C4
:100DB00084D901D09CD97DD9F5E3DB2AF3D7DF2A8A
:100DC000010EE9E3DB2AE7D7040EE15C02E2E16A07
:100DD000E55253D136D960D904E6020E105C000EFC
:100DE000115813E288D936D901E651D909E21CD944
:100DF00002E163D901D07BD95CD9F5E3DB2AF3D7D3
:100E0000DF2A010EE8E3DB2AE6D7040EE15C02E20A
:100E1000E16AE55232D115D935D90101201D82147C
:100E2000826E30D917D901E632D909E2FDD802E144
:100E300044D901D05CD93DD9F5E3DB2AF3D7040EC0
:100E4000E15C02E2E16AE55218D1FBD81BD9010E40
:100E5000DE6EDD6A50D9FED804E6030E105C000E8B
:100E6000115809E2E1D802E128D901D040D921D9AD
:100E7000F2E3DB2AF0D7040EE15C02E2E16AE5521C
:100E8000FCD0D9CFE6FFE1CFD9FFFD0EDBCFE9FFE4
:100E9000FE0EDBCFEAFF39D9010EEE1804E1ED506A
:100EA00002E1010E01D0000EE552E7CFD9FF12009A
:100EB000C8D826D9FD0EDBCF12F0FE0EDBCF13F023
:100EC00011501318E8AE02D0133404D01250105C45
:100ED0001350115811E2D6D8BDD804E6EE0E105CBE
:100EE000000E115804E2E5D8F7E3DB2AF5D7DF2A34
:100EF000010EDFE3DB2ADDD7040EE15C02E2E16AEA
:100F0000E552BBD09ED8C8D801E6C1D820E2ABD804
:100F1000826EB8D89FD801E6BAD80BE2E8D884D858
:100F200004E171D8010EEE6EED6AC3D8F3E3DB2A5B
:100F3000F1D78250816EE80EE66E030EE66EB8DFE2
:100F4000E552E552DF2A010EDEE3DB2ADCD7040E90
:100F5000E15C02E2E16AE55290D0D9CFE6FF040EEF
:100F6000E12684B005D00101002B000E012303D03F
:100F70000101006B016B84B204D0022B000E03232D
:100F800002D0026B036B84B404D0042B000E052343
:100F900002D0046B056B82B004D0062B000E072331
:100FA00002D0066B076B82B204D0082B000E092317
:100FB00002D0086B096B82B404D00A2B000E0B23FD
:100FC00002D00A6B0B6B82BA04D00C2B000E0D23DF
:100FD00002D00C6B0D6B81B004D00E2B000E0F23D2
:100FE00002D00E6B0F6B040EE15C02E2E16AE55287
:100FF00044D0070E9610966E270E9410946E010E34
:101000009310936E12007CD8D89010361136D89079
:1010100010361136020EDB501024E96E030EDB5041
:101020001120EA6E85EF08F0020EDBCFE9FF030E18
:10103000DBCFEAFF240EE926010EEA22EF508214EC
:101040001200D9CFE6FFE1CFD9FF040EE126DE6A18
:10105000DD6A1200020EDBCF10F0030EDBCF11F0C1
:10106000D89011501200DECFE9FFDDCFEAFF200E4D
:10107000E926010EEA22EF1C1200E16EE552E7CFED
:10108000D9FF1200020EDB6A030EDB6A1200040EA7
:10109000105C000E1158120033D8D8901150120075
:1010A000D89014361536120012C0EEFF13C0EDFFB3
:1010B0001200020EDB2A030E1200DECF14F0DDCF89
:1010C00015F0EEDFEDDF020EDB501424E96E030EA7
:1010D000DB501520EA6E19D8EECF12F0EFCF13F0E7
:1010E000010E1226000E13228EDF54EF08F08BDF64
:1010F000EE6AED6A1200B7DF8214826E42EF08F0EA
:10110000DECF10F0DDCF11F01200D890E936EA36CC
:0A111000000EE926010EEA2212008B
:06111A000AD9D59EFD0E6E
:10112000DBCF49F1FE0EDBCF4AF1D59C1ED9D59A13
:10113000D586F28AF294F184D58EFFD0D59E120026
:1011400014D9D58E1200F4D8CD90FD0EDBCF4BF123
:10115000FE0EDBCF4CF110D99D809E909F90CD8EDE
:10116000CD8CCD98CD9ACD96CD92CD80E6D004D9B8
:10117000CD801200CD901200DBD8CA94CC6AFE0E4E
:10118000DB5001014D6F4E6BCB6E9D829E929F9204
:10119000CA90CA92CA84D1D04DC1CBFFCA84120072
:1011A000CA941200C5D8B190FD0EDBCF4FF1FE0EF0
:1011B000DBCF50F1E8D80750B36EE5D8CED8B26E89
:1011C000A082A192A292B18EB198B19AB192B1804F
:1011D000B4D0D9D80350B26ED6D8B7D8B36EB180D8
:1011E0001200B19012000101592B000E5A236151D7
:1011F000595D62515A5904E3596B5A6B010E516F94
:10120000120001015B2B000E5C2363515B5D645196
:101210005C5904E35B6B5C6B010E526F12000101C1
:101220005D2B000E5E2365515D5D66515E5904E3E2
:101230005D6B5E6B010E536F120001015F2B000EA0
:10124000602367515F5D6851605904E35F6B606BB9
:10125000010E546F12006CD8FD0EDBCF61F1FE0E53
:10126000DBCF62F10101596B5A6B516B66D060D8CC
:10127000FD0EDBCF63F1FE0EDBCF64F1050E0D6ECC
:101280000E6A63C108F064C109F01CEC0FF008C0DD
:1012900063F109C064F101015B6B5C6B526B4DD073
:1012A00047D8FD0EDBCF65F1FE0EDBCF66F1050EF4
:1012B0000D6E0E6A65C108F066C109F01CEC0FF0F6
:1012C00008C065F109C066F101015D6B5E6B536B8F
:1012D00034D02ED8FD0EDBCF67F1FE0EDBCF68F1E8
:1012E0000A0E0D6E0E6A67C108F068C109F01CECA9
:1012F0000FF008C067F109C068F101015F6B606B16
:10130000546B1BD0186A1650135C106E175014588B
:10131000116E18501558126E0C6A010E0D6E0E6A81
:1013200010C007F011C008F012C009F042EF0FF032
:10133000D9CFE6FFE1CFD9FF1200E552E7CFD9FFC1
:10134000120013681468156A120007C010F008C074
:1013500011F009C012F00750120003C010F004C0D1
:1013600011F005C012F00350120014D80350D66ECD
:1013700011D8EBDFD76E120014D80750CF6E11D8FA
:10138000ECDFCE6E1200DDDF4FC116F050C117F05A
:1013900082EF09F0D6DF49C116F04AC117F082EF9B
:1013A00009F0CFDF4BC116F04CC117F082EF09F006
:1013B0000AD9020EE126FE0EDB500F0BDF6EFE0E89
:1013C000DB380F0B0A0D14D902E2E16AE552E16E37
:1013D0001050FED0F8D8020EE12613D90550DF6E6A
:1013E00010D90950100D04D902E2E16AE552E16E0C
:1013F0001050EED094869488C79EC79CC690C69223
:10140000C694C686310EC86EC68A12000ED9D00F99
:10141000C96E9EA6FED7DCD008D9A00FC96E9EA6C5
:10142000FED7D6D09E96C5809EA6FED712009E9669
:10143000C5849EA6FED71200F8D8C96E9EA6FED718
:10144000C7D09E96C5869EA6FED7C95012009E960E
:10145000C59AC5889EA6FED712009E96C58AC588E5
:101460009EA6FED71200AFD8D4D8010E8A6FE850DE
:1014700004E0C550400BFAE0F8D7FE0EA0D8010EEC
:101480008A6FE85004E0C550400BFAE0F8D7FD0E33
:10149000DBCFE6FF9FDFE552E66ECCD8010E8A6F08
:1014A000E85004E0C550400BFAE0F8D7C0DF90D018
:1014B0008AD8B5D8010E8A6FE85004E0C550400BB9
:1014C000FAE0F8D7FE0E7BD8010E8A6FE85004E0F0
:1014D000C550400BFAE0F8D77FD8010E8A6FE8506C
:1014E00004E0C550400BFAE0F8D7FC0E68D8010EB6
:1014F0008A6FE85004E0C550400BFAE0F8D797DF58
:1015000067D061D8E65285D8010E8A6FE85004E0B2
:10151000C550400BFAE0F8D7FE0E51D8010E8A6F85
:10152000E85004E0C550400BFAE0F8D77BDF010E2D
:10153000E66E6CDFE5520101010E8A6FE85004E0AF
:10154000C550400BFAE0F8D77CDFDF6EDFCFE6FF57
:101550002FDFE552DF6EDF50E5523AD034D8E65245
:101560005ED8010E8A6FE85004E0C550400BFAE0E7
:10157000F8D7FE0E24D8010E8A6FE85004E0C5505B
:10158000400BFAE0F8D728D8010E8A6FE85004E043
:10159000C550400BFAE0F8D745DF010EE66E3CDFA0
:1015A000E5520101010E8A6FE85004E0C550400B7E
:1015B000FAE0F8D746DFDF6EDF50E55209D0DBCF27
:1015C000E6FF1AEF0BF0D9CFE6FFE1CFD9FF12000B
:1015D000E552E7CFD9FF1200FD0EDBCF10F0FE0E73
:1015E000DBCF11F00001116A1050E66E1AEF0BF01C
:1015F000010EF3CFDBFFDB50DF24106E020EE15C47
:1016000012000A0E106E0E6EFE0EDBCF09F0CFEF49
:1016100010F008DFE66AFADEE5520101120002DF8F
:10162000E66AFADEE55201011200CDDF9E96FE0E5B
:0C163000DB50120001DFE5520101120046
:04163C0014D9060EA9
:10164000E126DE6ADD6AFD0EDBCFE9FFFE0EDBCFB1
:10165000EAFFD890E936EA36280EE926010EEA229A
:10166000040EEECFDBFF050EEDCFDBFF8396DECF62
:1016700010F0DDCF11F0D890115004E6080E105C88
:10168000000E115837E2800EE76E040EDBCF10F02B
:10169000050EE7501016116A020E10C0DBFF030E94
:1016A00011C0DBFF040EDBCF10F0050EDBCF11F015
:1016B000D89010361136040E10C0DBFF050E11C095
:1016C000DBFFD950020FE96EDACFEAFF800EEE1889
:1016D00001E1ED5002E0000E01D0010EE8B083847C
:1016E000E8A083948386B3D88396DF2A010EBFE3F4
:1016F000DB2ABDD7060EE15C02E2E16AE552AED01C
:10170000B2D8040EE1260A0E106E116AFD0EDBCF70
:1017100008F0FE0EDBCF09F010C00DF011C00EF086
:101720001CEC0FF008C0DEFF09C0DDFFFD0EDBCFB3
:1017300010F0FE0EDBCF11F00A0E0D6E0E6A10C017
:1017400008F011C009F01CEC0FF004C010F005C047
:1017500011F0020E04C0DBFF030E05C0DBFFD9CF82
:10176000E9FFDACFEAFFEE50ED1003E10A0EDE6E7C
:10177000DD6A020EDBCFE6FF030EDBCFE6FFDECF36
:10178000E6FFDDCFE6FF0AD8E552E552E552E55225
:10179000040EE15C02E2E16AE55260D064D883980D
:1017A0000A0EE66EE66A64D8FD0EDBCFE6FFFE0E9B
:1017B000DBCFE6FF61D8FB0EDBCFE6FFFC0EDBCF15
:1017C000E6FF56D80A0EE66EE66A56D8E552E7CF2F
:1017D000D9FF120048D8040EE126DE6ADD6ADECFAA
:1017E00010F0DDCF11F0FD0EDBCF12F0FE0EDBCFDF
:1017F00013F011501318E8AE02D0133404D0125075
:10180000105C135011581DE2020EDB6A030EDB6AF6
:10181000020EDBCF10F0030EDBCF11F0D890115089
:1018200004E6EE0E105C000E115806E2020EDB2AF2
:10183000030EEEE3DB2AECD7DF2A010ED0E3DB2A2E
:10184000CED7040EE15C02E2E16AE55207D0010E58
:10185000E66EE66ABFDFE552E5521200E16EE55240
:10186000E7CFD9FF1200D9CFE6FFE1CFD9FF1200B1
:10187000E5DEE552E5521200FBDF8388E8DF83985E
:0418800027EF0CF052
:0C188400FF0EDDD001018B6B8B51D9D021
:10189000FBDF01018B1DD5D0480EE9D0F5DF240E0A
:1018A000E6D0F2DF120EE3D0F00E01018B178B872A
:1018B0008B51C7D0F00E01018B178B858B51C1D096
:1018C000F00E01018B178B838B51BBD00F0E0101E2
:1018D0008B178B8D8B51B5D00F0E01018B178B8B16
:1018E0008B51AFD00F0E01018B178B898B51A9D073
:1018F000B5D8060EE126DE6ADD6AFD0EDBCF08F004
:10190000FE0EDBCF09F0040E08C0DBFF050E09C098
:10191000DBFF8192DECF10F0DDCF11F0D8901150B7
:1019200004E6080E105C000E115837E2800EE76ED8
:10193000040EDBCF10F0050EE7501016116A020EF0
:1019400010C0DBFF030E11C0DBFF040EDBCF10F075
:10195000050EDBCF11F0D89010361136040E10C0F2
:10196000DBFF050E11C0DBFFD950020FE96EDACFA5
:10197000EAFF800EEE1801E1ED5002E0000E01D00A
:10198000010EE8B08180E8A08190818260D88192C8
:10199000DF2A010EBFE3DB2ABDD7060EE15C02E2BF
:1019A000E16AE552E16E5FD059D88390FD0EDBCF3E
:1019B000E6FFFE0EDBCFE6FF9BDFE552E5528380BC
:1019C00046D8839050D04AD8040EE126DE6ADD6AFC
:1019D000DECF10F0DDCF11F0FD0EDBCF12F0FE0EEA
:1019E000DBCF13F011501318E8AE02D0133404D03B
:1019F0001250105C135011581DE2020EDB6A030EE8
:101A0000DB6A020EDBCF10F0030EDBCF11F0D890B3
:101A1000115004E6EE0E105C000E115806E2020EA4
:101A2000DB2A030EEEE3DB2AECD7DF2A010ED0E33C
:101A3000DB2ACED7040EE15C02E2E16AE552E16EF8
:101A400012D0E66EE66AB0DFE552E5521200010EF2
:101A5000E66EE66AB8DFE552E5521200D9CFE6FF3E
:101A6000E1CFD9FF1200E552E7CFD9FF1200010103
:081A70008B198B6FE850E5D7DC
:081A7800F28ED08EF28C1200F8
:101A8000F19CF292F2881200D8CFE4FFE0CFE4FF9D
:101A9000E46E6CD800EE00F0100EE80403E3EECF25
:101AA000E4FFFBD700EE10F00A0EE80403E3EECFEC
:101AB000E4FFFBD7E652F2B481D89EB086D89EB23E
:101AC0008BD8A1B290D8F2B2F2929EAA03D09E9A7D
:101AD0006FEC0EF0E55200EE19F00A0EE80403E395
:101AE000E5CFEDFFFBD700EE0FF0100EE80403E3A7
:101AF000E5CFEDFFFBD74FD8E550E5CFE0FFE5CFD1
:101B0000D8FF100033D800EE00F0100EE80403E315
:101B1000EECFE4FFFBD700EE10F00A0EE80403E37B
:101B2000EECFE4FFFBD7E652F2B448D89EB04DD8D2
:101B30009EB252D8A1B257D8F2B2F2929EAA03D066
:101B40009E9A6FEC0EF0E55200EE19F00A0EE804D2
:101B500003E3E5CFEDFFFBD700EE0FF0100EE80436
:101B600003E3E5CFEDFFFBD716D81100DACFE4FF92
:101B7000E2CFDAFFE9CFE4FFEACFE4FFF6CFE4FFFC
:101B8000F7CFE4FFF5CFE4FFF3CFE4FFF4CFE4FFBA
:101B9000FACFE4FF1200E5CFFAFFE5CFF4FFE5CF7F
:101BA000F3FFE5CFF5FFE5CFF7FFE5CFF6FFE5CF94
:101BB000EAFFE5CFE9FFE5CFDAFF12009EEC08F07F
:101BC000F294A0EC08F0F3EF08F0BAEC08F09E9065
:101BD000B7EC08F001EF09F0D0EC08F09E92CCECE5
:101BE00008F00FEF09F0F1EC08F0A192E9EC08F031
:041BF0001DEF09F0EC
:0C1BF400B06A810EAF6EAC8AAC94B8866B
:101C0000AC98AB8EAB889E9A9D8A9F9A949C948E3A
:101C1000120070D8040EE126DE6ADD6ADECF10F015
:101C2000DDCF11F0FD0EDBCF12F0FE0EDBCF13F097
:101C300011501318E8AE02D0133404D01250105CC7
:101C4000135011581DE2020EDB6A030EDB6A020E0E
:101C5000DBCF10F0030EDBCF11F0D890115004E66B
:101C6000EE0E105C000E115806E2020EDB2A030E87
:101C7000EEE3DB2AECD7DF2A010ED0E3DB2ACED756
:101C8000040EE15C02E2E16AE552E16E38D032D83E
:101C90009EA8FED7FE0EDB50AD6E9E9830D02AD89F
:101CA00032D80AE030D8E66EF2DFE552FD0EDB2ACC
:101CB000FE0EF6E3DB2AF4D722D01CD812D80EE0B1
:101CC00010D8E66EE4DFE552FD0EDBCFF6FFDB2A2F
:101CD000FE0EDBCFF7FFF2E3DB2AF0D710D08BEF5D
:101CE0000EF0FD0EDBCFF6FFFE0EDBCFF7FF080098
:101CF000F5501200D9CFE6FFE1CFD9FF1200E5522F
:101D0000E7CFD9FF1200FD0EDBCFE9FFFE0EDBCFE0
:061D1000EAFFEF50120093
:0A1D1600D9CFE6FFE1CFD9FFE65276
:101D2000AE50DF6EDFCFE6FF47EC0EF0E55201016B
:101D30006B51050A2AE0010A21E0070A11E0010AB5
:101D40000AE0020A02E0010A2AE1FE0EDF5C28E155
:101D50006E6B020E22D0FE0EDF5C15E1030E1DD06D
:101D60006E51EA6A810FE96E000EEA22DFCFEFFFC3
:101D70006E2B70516E5D14E3040E0FD0FF0EDF5C0E
:101D800002E1050E0AD0010E08D0FF0EDF5C04E16F
:101D9000010E6C6F6B6B04D0010E6B6F01D06B6B1F
:101DA000E552E552E7CFD9FF1200120001016C05A0
:101DB00032E1BA0EE66E210EE66EE66AE66A03ECE2
:101DC00003F0E552E552E552E5520001806B010156
:101DD00070510001805D15E28051EA6A810FE96E61
:101DE000000EEA22EFCF10F0116A126A136A10C0D7
:101DF000E6FF1BD8030E8003F3500ED80001802BA2
:101E0000E6D76BC110F0116A126A136A6BC1E6FF64
:101E10000CD80F0E01D81200E66EE66AB5EC02F09F
:101E2000146E060EE15E1450120011C0E6FF12C0DF
:081E3000E6FF13C0E6FF1200FB
:081E3800006A0EAE25EF0FF069
:101E40000D6C0E1EE86A0E22001E09AE2DEF0FF07B
:101E5000086C091EE86A0922001E9BEC10F009BEFE
:101E60003DEF0FF000AE000C086C091EE86A092275
:101E7000046C051EE86A0522000C00BE34EF0FF06A
:101E80000188FF0C006A0EAE4DEF0FF00C6C0D1EBA
:101E90000E1EE86A0D220E22001E09AE57EF0FF04B
:101EA000076C081E091EE86A08220922001E62EC5F
:101EB00010F009BE6AEF0FF000AE000C076C081EB0
:101EC000091EE86A08220922036C041E051E04226A
:0E1ED0000522000C00BE5EEF0FF00188FF0C33
:021EDE001E0ED6
:101EE000F66E000EF76E000EF86E01010900F55057
:101EF000816F0900F550826F03E1816701D03DD009
:101F00000900F5507C6F0900F5507D6F0900F55010
:101F10007E6F09000900F550E96E0900F550EA6E80
:101F2000090009000900F5507F6F0900F550806F26
:101F300009000900F6CF83F1F7CF84F1F8CF85F1DE
:101F40007CC1F6FF7DC1F7FF7EC1F8FF01017F5321
:101F500002E1805307E00900F550EE6E7F07F8E2DA
:101F60008007F9D783C1F6FF84C1F7FF85C1F8FF69
:0C1F700001018107000E825BBFD7120048
:041F7C00010E926E52
:101F80000E0EC16EC26A040EC06EC2801200D9CF9E
:101F9000E6FFE1CFD9FF020EE126DE6ADD6AC282EA
:101FA000C2B2FED7C450DE6EDD6ADECF12F0DDCFE6
:101FB00013F0D89012361336D89012361336060E18
:101FC000C3CFE7FF070B04E0E742E79EE806FCE12A
:101FD000E7501224106E000E132010C0DEFFDD6EDD
:101FE000DECF61FFDDCF62FFDECF10F0DDCF11F07D
:101FF00010C0F3FF11C0F4FF020EE15C02E2E16ADF
:0C200000E552E16EE552E7CFD9FF120077
:04200C0006500B026D
:10201000F3CF02F0F4CF03F00C02F3500326000ECE
:10202000F420046E06500D02F3500426000EF42036
:10203000056E06500E02F350052607500B02F350B2
:102040000326F4500422000E052207500C02F35020
:102050000426F450052207500D02F35005260850BF
:102060000B02F3500426F450052208500C02F350E2
:0C207000052609500B02F3500526120053
:04207C00056A046A83
:10208000036A026A200EE76ED890063607360836D5
:10209000093602360336043605360B50025C0C5006
:1020A00003580D5004580E50055809E30B50025EBA
:1020B0000C50035A0D50045A0E50055A062AE72EAA
:0420C000E4D712004F
:0C20C400056A046A036A180EE76ED890E3
:1020D0000736083609360336043605360C50035CDD
:1020E0000D5004580E50055807E30C50035E0D5078
:0E20F000045A0E50055A072AE72EEAD71200AE
:0220FE00CA9482
:10210000CA90CA829B0ECB6EBD98BD9ABE6ABD9C1A
:10211000BD9EBD90BD92BD84BD869494CA841200BC
:10212000D9CFE6FFE1CFD9FFFE0EDB50BE6EE55200
:06213000E7CFD9FF120009
:0A213600056A046A100EE76ED890E7
:1021400008360936043605360D50045C0E50055825
:1021500005E30D50045E0E50055A082AE72EF0D70D
:0221600012006B
:0E216200800EF36E00EE00F00F0E01D812009A
:10217000EA6002D0EE6AFCD7F350E9601200EE6A22
:02218000FCD78A
:0E2182001EEE00F02EEE00F0F86A019C6FECED
:0E2190000FF003EC00F084EC04F0FBD712001B
:02219E00056AD0
:1021A000080EE76ED890093605360E50055C02E33E
:0A21B000056E092AE72EF7D712008A
:0621BA002020202020205F
:0B21C0002020202020202020202000D4
:0521CB0000000000000F
:1021D00000000000000000000000000000000000FF
:0B21E0000000000100010001000100F0
:0521EB000000000000EF
:0E21F0000000050500000000000000000000D7
:0221FE00C0FF20
:10220000F9FFA4FFB0FF99FF92FF82FFF8FF80FF64
:0F22100090FFFFFFFF050302050300001400000D
:01221F0000BE
:102220000000000000000010101010101010101816
:10223000181818181818181C1C1C1C1C1C1C1C1EF8
:102240001E1E1E1E1E1E1E1F1F1F1F1F1F1F1F00C4
:10225000000000000000000000000000000000007E
:10226000000000000000000000000000000000006E
:10227000000000000000000000000000000000005E
:10228000000000D0002222220725091000010000D2
:0B229000000000000000000000000043
:05229B0000000000003E
:1022A000000000000000000000000000000000002E
:1022B000000000000000000000000010204080012D
:0322C0000204080D
:020000040030CA
:0100010002FC
:0100020003FA
:010003001EDE
:010005008179
:010006008178
:010008000FE8
:01000900C036
:01000A000FE6
:01000B00E014
:01000C000FE4
:01000D0040B2
:00000001FF
