:020000040000FA
:0600000096EF18F012005B
:020006001200E6
:0600080022EF15F01200CA
:01000E0000F1
:01000F0000F0
:0400100000000000EC
:06001800A4EF14F0120039
:02001E000900D7
:1000200033320000000100002800000018320000F8
:10003000E50000001B00000010000000850100002A
:1000400004000000B7310000000F00006100000054
:100050009731000048010000200000000F00000060
:100060008B010000010000008431000068010000E5
:10007000130000006431000028010000200000008F
:0C0080000E0000008A01000001000000DA
:04008C00D9CFE6FFE3
:10009000E1CFD9FF040EE126DE6ADD6ADECF10F083
:1000A000DDCF11F0126A136A11AE02D01268136824
:1000B000D950FB0FE96EFF0EDA20EA6EEE50105CAD
:1000C000EE501158EE501258EE5013581DE2020E29
:1000D000DB6A030EDB6A020EDBCF10F0030EDBCF10
:1000E00011F0D890115004E6050E105C000E115866
:1000F00006E2020EDB2A030EEEE3DB2AECD7DF2A50
:10010000010ECCE3DB2ACAD7040EE15C02E2E16A0D
:10011000E552E16EE552E7CFD9FF1200D9CFE6FFF5
:10012000E1CFD9FF040EE126DE6ADD6ADECF10F0F2
:10013000DDCF11F0126A136A11AE02D01268136893
:10014000D950FB0FE96EFF0EDA20EA6EEE50105C1C
:10015000EE501158EE501258EE5013581DE2020E98
:10016000DB6A030EDB6A020EDBCF10F0030EDBCF7F
:1001700011F0D890115004E6EE0E105C000E1158EC
:1001800006E2020EDB2A030EEEE3DB2AECD7DF2ABF
:10019000010ECCE3DB2ACAD7040EE15C02E2E16A7D
:1001A000E552E16EE552E7CFD9FF1200D9CFE6FF65
:1001B000E1CFD9FF0F0E8116FE0EDB50F00B81123E
:1001C0008186010EE66EE66AE66AE66AA7DFE55218
:1001D000E552E552E5528196010EE66EE66AE66A60
:1001E000E66A9CDFE552E552E552E5520F0E8116B4
:1001F000FE0EDB38F00B81128186010EE66EE66A98
:10020000E66AE66A8BDFE552E552E552E5528196F1
:10021000010EE66EE66AE66AE66A80DFE552E552BE
:10022000E552E552E552E7CFD9FF1200D9CFE6FFFC
:10023000E1CFD9FFE652936A190EE66EE66AE66AE6
:10024000E66A6CDFE552E552E552E5520F0E811683
:10025000F80E81160F0E8116300E81128186010E66
:10026000E66EE66AE66AE66A59DFE552E552E5526D
:10027000E5528196010EE66EE66AE66AE66A4EDFB0
:10028000E552E552E552E5520F0E8116300E81120D
:100290008186010EE66EE66AE66AE66A3FDFE552AF
:1002A000E552E552E5528196010EE66EE66AE66A8F
:1002B000E66A34DFE552E552E552E5520F0E81164B
:1002C000300E81128186010EE66EE66AE66AE66A03
:1002D00025DFE552E552E552E5528196010EE66EC4
:1002E000E66AE66AE66A1ADFE552E552E552E55249
:1002F0000F0E8116818A8186010EE66EE66AE66A35
:10030000E66A0CDFE552E552E552E5528196010EB0
:10031000E66EE66AE66AE66A01DFE552E552E55214
:10032000E552280EE66E42DFE5520C0EE66E3EDF29
:10033000E552E552E552E7CFD9FF1200D9CFE6FFEB
:10034000E1CFD9FF020EE126DF6A010EDB6A81945C
:100350000F0EE66EE66AE66AE66A98DEE552E55258
:10036000E552E5520F0E81128186E66EE66AE66A74
:10037000E66A8CDEE552E552E552E5520F0E811435
:10038000E76E010EE7CFDBFF81960F0EE66EE66AA1
:10039000E66AE66A7BDEE552E552E552E5520F0E6B
:1003A00081128186E66EE66AE66AE66A6FDEE552EB
:1003B000E552E552E5520F0E8114DF6E010EDB505F
:1003C000DF128196010EE66EE66AE66AE66A5EDE96
:1003D000E552E552E552E552DF50106E020EE15C47
:1003E00002E2E16AE552E16E1050E552E7CFD9FF33
:1003F0001200D9CFE6FFE1CFD9FFE652DF6A9EDFD8
:10040000DF6EDFBEFCD7DF50E552E552E7CFD9FF04
:100410001200D9CFE6FFE1CFD9FF0F0E8116FE0EF5
:10042000DB5081128186050EE66EE66AE66AE66AB0
:100430002DDEE552E552E552E5528196050EE66E57
:10044000E66AE66AE66A22DEE552E552E552E552E0
:10045000E552E7CFD9FF1200D9CFE6FFE1CFD9FFB0
:100460008194050EE66EE66AE66AE66A0FDEE552FC
:10047000E552E552E552FE0EDBCFE6FFCADFE5525C
:10048000FE0EDB38F00BE66EC4DFE552E552E7CF37
:10049000D9FF1200D9CFE6FFE1CFD9FF8184050E45
:1004A000E66EE66AE66AE66AF1DDE552E552E55295
:1004B000E552FE0EDBCFE6FFACDFE552FE0EDB3889
:1004C000F00BE66EA6DFE5528194E552E7CFD9FF47
:1004D0001200D9CFE6FFE1CFD9FFFE0EDBCFE6FF5A
:1004E000D9DFE552E552E7CFD9FF1200D9CFE6FFB9
:1004F000E1CFD9FFFE0EDBCFE6FFCCDFE552E552C0
:10050000E7CFD9FF1200D9CFE6FFE1CFD9FFFD0E2B
:10051000DBCFF6FFFE0EDBCFF7FF0800F5500FE054
:10052000FD0EDBCFF6FFDB2AFE0EDBCFF7FF01E38C
:10053000DB2A0800F550E66ED9DFE552E8D7E55230
:10054000E7CFD9FF1200D9CFE6FFE1CFD9FFE652BE
:10055000FD0EDB500F0B106EFE0EDB50010B400D3D
:10056000F3501024DF6E7F0EDF14800FDF6EDFCFBD
:10057000E6FF72DFE552E552E552E7CFD9FF120000
:10058000010EE66E69DFE552E66AE66ADCDFE552F7
:10059000E5521200D9CFE6FFE1CFD9FF050EE126E3
:1005A000010EF36EDB6E020EDB6A030EDB6A040ED5
:1005B000DB6ADF6ADFCF10F0116A10BE1168FB0E34
:1005C000DBCF12F0FC0EDBCF13F011501318E8AEA6
:1005D00002D0133404D01250105C135011582DE285
:1005E000FD0EDBCF10F0FE0EDBCF11F0126A136AA6
:1005F00011AE02D012681368D950010FE96EDACF3C
:10060000EAFF10C00BF011C00CF012C00DF013C0C7
:100610000EF0EECF06F0EECF07F0EECF08F0EFCF02
:1006200009F0C2EC17F005C0EDFF04C0EDFF03C0F8
:10063000EDFF02C0EFFFDF2ABDD7010EDBCF10F0C8
:10064000020EDBCF11F0030EDBCF12F0040EDBCF76
:1006500013F010C006F011C007F012C008F013C06C
:1006600009F0050EE15C02E2E16AE552E16EE55255
:10067000E7CFD9FF1200D9CFE6FFE1CFD9FF020EB5
:10068000E126DF6AFB0EDBCF10F0FC0EDBCF11F0B2
:10069000FD0EDBCF12F0FE0EDBCF13F01050111069
:1006A0001210131005E1300EE66E20DFE552F4D093
:1006B000D950FB0FE96EFF0EDA20EA6ED890030ED8
:1006C000EB50000A08E6000EEE5C000EEE58000E3D
:1006D000EE58000EEE5815E22D0EE66E07DFE552DD
:1006E000D950FB0FE96EFF0EDA20EA6E000EEE6CB9
:1006F000EF1EEE22EF1EEE22EF1EEF22ED52ED5224
:10070000ED52DE52070EDD6E010EDBCF10F0000E53
:10071000E76E1018E8AE02D0103403D0E750D8804E
:10072000105401E3B9D0010EDB04146E156A14BE37
:10073000156814C0E6FF15C0E6FF0A0EE66EE66A0D
:1007400029DFE552E552E552E55206C010F007C038
:1007500011F008C012F009C013F006C00BF007C07A
:100760000CF008C00DF009C00EF0FB0EDBCF06F058
:10077000FC0EDBCF07F0FD0EDBCF08F0FE0EDBCF6B
:1007800009F0FAEC17F0065007100810091041E0C4
:10079000010EDF6EDB04186E196A18BE196818C0E6
:1007A000E6FF19C0E6FF0A0EE66EE66AF3DEE552E2
:1007B000E552E552E55206C014F007C015F008C036
:1007C00016F009C017F006C00BF007C00CF008C007
:1007D0000DF009C00EF0FB0EDBCF06F0FC0EDBCFF8
:1007E00007F0FD0EDBCF08F0FE0EDBCF09F0FAECD0
:1007F00017F006C010F007C011F008C012F009C0D1
:1008000013F0300E1026000E112212221322105067
:1008100003D0DF5004E0300EE66E68DEE552010ED4
:10082000DB04146E156A14BE156814C0E6FF15C00B
:10083000E6FF0A0EE66EE66AADDEE552E552E552E7
:10084000E55206C010F007C011F008C012F009C050
:1008500013F0D950FB0FE96EFF0EDA20EA6E06C0E6
:100860000BF007C00CF008C00DF009C00EF0EECF81
:1008700006F0EECF07F0EECF08F0EFCF09F0FAEC7C
:1008800017F005C0EDFF04C0EDFF03C0EDFF02C08F
:10089000EFFF010EDB0638D7020EE15C02E2E16AEF
:1008A000E552E16EE552E7CFD9FF1200D9CFE6FF5E
:1008B000E1CFD9FFFD0EDBCFE6FFFE0EDBCFE6FF7B
:1008C00042DEE552E552D950F90FE96EFF0EDA200B
:1008D000EA6EEECFE6FFEECFE6FFEECFE6FFEFCF1C
:1008E000E6FFC9DEE552E552E552E552E552E7CFB3
:1008F000D9FF1200D9CFE6FFE1CFD9FFFD0EDBCF44
:10090000E6FFFE0EDBCFE6FF1EDEE552E552FB0EF4
:10091000DBCFE6FFFC0EDBCFE6FFF5DDE552E5526F
:10092000E552E7CFD9FF1200D9CFE6FFE1CFD9FFDB
:100930007BCF10F07CCF11F0040ED890103611361A
:10094000E806FBE1410E10260F0E112210500F0198
:100950007D25E96E11507E21EA6EFE0EDBCFEFFFA2
:100960007D2B000E7E23E552E7CFD9FF1200D9CFB1
:10097000E6FFE1CFD9FFE652DF6ADFCF10F0100EBD
:10098000E76E1018E8AE02D0E73402D0E750105CF2
:1009900018E2DFCFE9FFEA6AE9BEEA68410EE9261C
:1009A0000F0EEA22200EEF6EDFCFE9FFEA6AE9BE02
:1009B000EA68510EE9260F0EEA22200EEF6EDF2ABA
:1009C000DCD7E552E552E7CFD9FF1200D9CFE6FFD9
:1009D000E1CFD9FFE6520F014051030A52E0010A6C
:1009E00036E0030A1AE0010A67E1E66AE66AABDD6F
:1009F000E552E552DF6A080EDF5C0CE2DF50EA6A7E
:100A0000410FE96E0F0EEA22EF50E66E6FDDE55200
:100A1000DF2AF1D70F01010E32D0080EE66EE66A2A
:100A200092DDE552E552DF6A080EDF5C0DE2080E4A
:100A3000DF24EA6A410FE96E0F0EEA22EF50E66EFC
:100A400055DDE552DF2AF0D70F01020E18D0E66A15
:100A5000010EE66E78DDE552E552DF6A080EDF5CD6
:100A60000CE2DF50EA6A510FE96E0F0EEA22EF50F6
:100A7000E66E3CDDE552DF2AF1D70F01030E406F31
:100A80001CD0080EE66E010EE66E5DDDE552E55205
:100A9000DF6A080EDF5C0DE2080EDF24EA6A510F00
:100AA000E96E0F0EEA22EF50E66E20DDE552DF2AF6
:100AB000F0D70F01406B01D0406BE552E552E7CF14
:100AC000D9FF1200D9CFE6FFE1CFD9FFE6520F01DF
:100AD0004051010A1BE0010A32E1E66AE66A33DDB1
:100AE000E552E552DF6A100EDF5C0CE2DF50EA6A85
:100AF000410FE96E0F0EEA22EF50E66EF7DCE55289
:100B0000DF2AF1D70F01010E406F1AD0E66A010EFD
:100B1000E66E19DDE552E552DF6A100EDF5C0CE28D
:100B2000DF50EA6A510FE96E0F0EEA22EF50E66ECF
:100B3000DDDCE552DF2AF1D70F01406B01D0406BBD
:100B4000E552E552E7CFD9FF1200D9CFE6FFE1CF5A
:100B5000D9FFE652E66AE66AF6DCE552E552DF6A5C
:100B6000100EDF5C0CE2DF50EA6A410FE96E0F0EF7
:100B7000EA22EF50E66EBADCE552DF2AF1D7E66AE8
:100B8000010EE66EE0DCE552E552DF6A100EDF5C36
:100B90000CE2DF50EA6A510FE96E0F0EEA22EF50C5
:100BA000E66EA4DCE552DF2AF1D7E552E552E7CF45
:100BB000D9FF1200D9CFE6FFE1CFD9FFFE0EDB50FF
:100BC000010B0F017B6F7C6BFD0EDB500F0B7D6FFC
:100BD0007E6BFC0EDB500A0802E1610E05D0FC0EB4
:100BE000DB500D0805E1640EF36EFC0EF3CFDBFF66
:100BF0007BCF10F07CCF11F0040ED8901036113658
:100C0000E806FBE1410E10260F0E112210500F01D5
:100C10007D25E96E11507E21EA6EFC0EDBCFEFFFE1
:100C2000E552E7CFD9FF1200D9CFE6FFE1CFD9FFD8
:100C3000020EE126DF6AFE0EDB50010B0F017B6F17
:100C40007C6BFD0EDB500F0B7D6F7E6BF90EDBCFE7
:100C500010F0FA0EDBCF11F0FB0EDBCF12F0FC0E22
:100C6000DBCF13F0105011101210131005E1300EED
:100C7000E66E5ADEE552F5D0D950F90FE96EFF0E57
:100C8000DA20EA6ED890030EEB50000A08E6000E58
:100C9000EE5C000EEE58000EEE58000EEE5815E217
:100CA0002D0EE66E41DEE552D950F90FE96EFF0ECA
:100CB000DA20EA6E000EEE6CEF1EEE22EF1EEE2240
:100CC000EF1EEF22ED52ED52ED52DE52070EDD6EB9
:100CD000010EDBCF10F0000EE76E1018E8AE02D068
:100CE000103403D0E750D880105401E3BAD0010E7D
:100CF000DB04146E156A14BE156814C0E6FF15C037
:100D0000E6FF0A0EE66EE66A45DCE552E552E5527C
:100D1000E55206C010F007C011F008C012F009C07B
:100D200013F006C00BF007C00CF008C00DF009C0AE
:100D30000EF0F90EDBCF06F0FA0EDBCF07F0FB0E5C
:100D4000DBCF08F0FC0EDBCF09F0FAEC17F0065011
:100D500007100810091041E0010EDF6EDB04186E69
:100D6000196A18BE196818C0E6FF19C0E6FF0A0E16
:100D7000E66EE66A0FDCE552E552E552E55206C042
:100D800014F007C015F008C016F009C017F006C02F
:100D90000BF007C00CF008C00DF009C00EF0F90E02
:100DA000DBCF06F0FA0EDBCF07F0FB0EDBCF08F04F
:100DB000FC0EDBCF09F0FAEC17F006C010F007C00C
:100DC00011F008C012F009C013F0300E1026000E0A
:100DD000112212221322105003D0DF5004E0300EF3
:100DE000E66EA2DDE552010EDB04146E156A14BE38
:100DF000156814C0E6FF15C0E6FF0A0EE66EE66A47
:100E0000CAEC02F0E552E552E552E55206C010F098
:100E100007C011F008C012F009C013F0D950F90F43
:100E2000E96EFF0EDA20EA6E06C00BF007C00CF088
:100E300008C00DF009C00EF0EECF06F0EECF07F0BF
:100E4000EECF08F0EFCF09F0FAEC17F005C0EDFF98
:100E500004C0EDFF03C0EDFF02C0EFFF010EDB0693
:100E600037D7020EE15C02E2E16AE552E16EE5523B
:100E7000E7CFD9FF1200D9CFE6FFE1CFD9FFFE0EB1
:100E8000DB50010B0F017B6F7C6BFD0EDB500F0BFA
:100E90007D6F7E6BFB0EDBCFF6FFFC0EDBCFF7FF2B
:100EA0000800F5500FE0FB0EDBCFF6FFDB2AFC0E4F
:100EB000DBCFF7FF01E3DB2A0800F550E66E34DDF7
:100EC000E552E8D7E552E7CFD9FF1200D9CFE6FFC8
:100ED000E1CFD9FF120EE126DE6ADD6ADE6ADD6A45
:100EE000DECF10F0DDCF11F0D890115004E6100ED7
:100EF000105C000E115822E2FD0EDBCF12F0FE0E48
:100F0000DBCF13F0DE501224F66EDD501320F76EA7
:100F10000800F550E66ED950020F106EDACF11F0CE
:100F2000DE501024E96EDD501120EA6EE552E750E4
:100F3000EF6EDF2A010ED4E3DB2AD2D7DE6ADD6A48
:100F4000DECF10F0DDCF11F0D890115004E6100E76
:100F5000105C000E115819E2D950020F106EDACF52
:100F600011F0DE501024E96EDD501120EA6EEF50D2
:100F7000E66EDFCFE6FFE66A1DDEE552E552E5529A
:100F8000DF2A010EDDE3DB2ADBD7DE6ADD6ADECF96
:100F900010F0DDCF11F0D890115004E6100E105C67
:100FA000000E115826E2DECF12F0DDCF13F0010E55
:100FB0001226000E1322FD0EDB501224F66EFE0EDA
:100FC000DB501320F76E0800F550E66ED950020F83
:100FD000106EDACF11F0DE501024E96EDD501120D2
:100FE000EA6EE552E750EF6EDF2A010ED0E3DB2A0E
:100FF000CED7FD0EDBCFF6FFFE0EDBCFF7FF0800EE
:10100000110EF5CFDBFF120EE15C02E2E16AE55260
:0A101000E16EE552E7CFD9FF1200B0
:06101A000F0E946E8268C7
:101020001200CF0E9414946E82681200D9CFE6FF9E
:10103000E1CFD9FF040EE126DE6ADD6ADECF10F0D3
:10104000DDCF11F0D890115004E6040E105C000EB4
:10105000115801E390D0DECFE9FFDDCFEAFF200E8B
:10106000E926010EEA22EF1C826E020EDB6A030EF5
:10107000DB6A020EDBCF10F0030EDBCF11F0D8904D
:10108000115004E6040E105C000E11586EE2020EC0
:10109000DBCFE9FF030EDBCFEAFF240EE926010ECA
:1010A000EA22EF5082143FE1DECF14F0DDCF15F0DD
:1010B000D89014361536D89014361536020EDB50FB
:1010C0001424E96E030EDB501520EA6ED890E93641
:1010D000EA36000EE926010EEA22EECF12F0EFCF3B
:1010E00013F0010E1226000E1322DECF10F0DDCF1A
:1010F00011F0D89010361136D89010361136020EF5
:10110000DB501024E96E030EDB501120EA6ED890FC
:10111000E936EA36000EE926010EEA2212C0EEFF99
:1011200013C0EDFF1BD0DECF10F0DDCF11F0D89053
:1011300010361136D89010361136020EDB501024BE
:10114000E96E030EDB501120EA6ED890E936EA36DC
:10115000000EE926010EEA22EE6AED6A020EDB2A93
:10116000030E01E286D7DB2A84D7DF2A010E01E2D3
:1011700065D7DB2A63D7040EE15C02E2E16AE5523F
:10118000E16EE552E7CFD9FF1200D9CFE6FFE1CFFC
:10119000D9FF040EE126DE6ADD6ADECF10F0DDCF76
:1011A00011F0D890115004E6020E105C000E115898
:1011B00001E391D0DECFE9FFDDCFEAFF200EE92683
:1011C000010EEA22EF1C8214826E020EDB6A030E0D
:1011D000DB6A020EDBCF10F0030EDBCF11F0D890EC
:1011E000115004E6040E105C000E11586EE2020E5F
:1011F000DBCFE9FF030EDBCFEAFF240EE926010E69
:10120000EA22EF5082143FE1DECF14F0DDCF15F07B
:10121000D89014361536D89014361536020EDB5099
:101220001424E96E030EDB501520EA6ED890E936DF
:10123000EA36000EE926010EEA22EECF12F0EFCFD9
:1012400013F0010E1226000E1322DECF10F0DDCFB8
:1012500011F0D89010361136D89010361136020E93
:10126000DB501024E96E030EDB501120EA6ED8909B
:10127000E936EA36000EE926010EEA2212C0EEFF38
:1012800013C0EDFF1BD0DECF10F0DDCF11F0D890F2
:1012900010361136D89010361136020EDB5010245D
:1012A000E96E030EDB501120EA6ED890E936EA367B
:1012B000000EE926010EEA22EE6AED6A020EDB2A32
:1012C000030E01E286D7DB2A84D7DF2A010E01E272
:1012D00064D7DB2A62D7040EE15C02E2E16AE552E0
:1012E000E16EE552E7CFD9FF1200D9CFE6FFE1CF9B
:1012F000D9FF040EE126DE6ADD6A020EDB6A030E08
:10130000DB6A0101201D8214826E020EDB6A030E6D
:10131000DB6A020EDBCF10F0030EDBCF11F0D890AA
:10132000115004E6040E105C000E11586EE2020E1D
:10133000DBCFE9FF030EDBCFEAFF240EE926010E27
:10134000EA22EF5082143FE1DECF14F0DDCF15F03A
:10135000D89014361536D89014361536020EDB5058
:101360001424E96E030EDB501520EA6ED890E9369E
:10137000EA36000EE926010EEA22EECF12F0EFCF98
:1013800013F0010E1226000E1322DECF10F0DDCF77
:1013900011F0D89010361136D89010361136020E52
:1013A000DB501024E96E030EDB501120EA6ED8905A
:1013B000E936EA36000EE926010EEA2212C0EEFFF7
:1013C00013C0EDFF1BD0DECF10F0DDCF11F0D890B1
:1013D00010361136D89010361136020EDB5010241C
:1013E000E96E030EDB501120EA6ED890E936EA363A
:1013F000000EE926010EEA22EE6AED6A020EDB2AF1
:10140000030E01E286D7DB2A84D7040EE15C02E2F8
:10141000E16AE552E16EE552E7CFD9FF1200D9CF7C
:10142000E6FFE1CFD9FF040EE126DE6ADD6A020E97
:10143000DB6A030EDB6A010EDE6EDD6ADECFE9FFDA
:10144000DDCFEAFF200EE926010EEA22EF1C82140E
:10145000826E020EDB6A030EDB6A020EDBCF10F037
:10146000030EDBCF11F0D890115004E6030E105C90
:10147000000E11586EE2020EDBCFE9FF030EDBCF48
:10148000EAFF240EE926010EEA22EF5082143FE122
:10149000DECF14F0DDCF15F0D89014361536D89085
:1014A00014361536020EDB501424E96E030EDB50A1
:1014B0001520EA6ED890E936EA36000EE926010ECC
:1014C000EA22EECF12F0EFCF13F0010E1226000E3B
:1014D0001322DECF10F0DDCF11F0D8901036113688
:1014E000D89010361136020EDB501024E96E030E30
:1014F000DB501120EA6ED890E936EA36000EE92674
:10150000010EEA2212C0EEFF13C0EDFF1BD0DECFAA
:1015100010F0DDCF11F0D89010361136D89010367B
:101520001136020EDB501024E96E030EDB50112041
:10153000EA6ED890E936EA36000EE926010EEA2274
:10154000EE6AED6A020EDB2A030E01E286D7DB2A81
:1015500084D7040EE15C02E2E16AE552E16EE552F5
:10156000E7CFD9FF1200D9CFE6FFE1CFD9FFFD0EBB
:10157000DBCFE9FFFE0EDBCFEAFFD890E936EA3693
:10158000000EE926010EEA22010EEE1804E1ED50EC
:1015900002E1010E01D0000EE552E7CFD9FF1200A3
:1015A000D9CFE6FFE1CFD9FF040EE126DE6ADD6A7E
:1015B000DECF10F0DDCF11F0FD0EDBCF12F0FE0E0E
:1015C000DBCF13F011501318E8AE02D0133404D05F
:1015D0001250105C135011581DE2020EDB6A030E0C
:1015E000DB6A020EDBCF10F0030EDBCF11F0D890D8
:1015F000115004E6EE0E105C000E115806E2020EC9
:10160000DB2A030EEEE3DB2AECD7DF2A010ED0E360
:10161000DB2ACED7040EE15C02E2E16AE552E16E1C
:10162000E552E7CFD9FF1200D9CFE6FFE1CFD9FFCE
:10163000040EE126DE6ADD6ADECF10F0DDCF11F0A8
:10164000D890115004E6040E105C000E115875E29B
:10165000DECFE9FFDDCFEAFF200EE926010EEA2208
:10166000EF1C826E020EDB6A030EDB6A020EDBCF1A
:1016700010F0030EDBCF11F0D890115004E6040EE9
:10168000105C000E11584AE2DECF10F0DDCF11F0F1
:10169000D89010361136D89010361136020EDB5025
:1016A0001024E96E030EDB501120EA6ED890E93663
:1016B000EA36000EE926010EEA22EE6AED6A020E13
:1016C000DBCFE9FF030EDBCFEAFF240EE926010E94
:1016D000EA22EF5082141CE1DECF10F0DDCF11F0D2
:1016E000D89010361136D89010361136020EDB50D5
:1016F0001024E96E030EDB501120EA6ED890E93613
:10170000EA36000EE926010EEA22010EEE6EED6ABF
:10171000020EDB2A030EAAE3DB2AA8D78250816ED1
:10172000E80EE66E030EE66E3BDFE552E552DF2A79
:10173000010E01E281D7DB2A7FD7040EE15C02E2D1
:10174000E16AE552E16EE552E7CFD9FF1200D9CF49
:10175000E6FF040EE12684B005D00101002B000E47
:10176000012303D00101006B016B84B204D0022B72
:10177000000E032302D0026B036B84B404D0042B4D
:10178000000E052302D0046B056B82B004D0062B3B
:10179000000E072302D0066B076B82B204D0082B21
:1017A000000E092302D0086B096B82B404D00A2B07
:1017B000000E0B2302D00A6B0B6B82BA04D00C2BE9
:1017C000000E0D2302D00C6B0D6B81B004D00E2BDC
:1017D000000E0F2302D00E6B0F6B040EE15C02E2D1
:1017E000E16AE552E16EE552E7CFD9FF1200070E3C
:1017F0009610966E270E9410946E010E9310936EB1
:021800001200D4
:0E180200D9CFE6FFE1CFD9FFD59EFD0EDBCF9B
:1018100028F1FE0EDBCF29F1D59C13681468156AF8
:1018200028C116F029C117F0186A1650135C106E03
:1018300017501458116E18501558126E0C6A010E7C
:101840000D6E0E6A10C007F011C008F012C009F04A
:10185000FEEC16F00350D66E13681468156A28C1A2
:1018600016F029C117F0186A1650135C106E175045
:101870001458116E18501558126E0C6A010E0D6E28
:101880000E6A10C007F011C008F012C009F0FEEC9B
:1018900016F007C010F008C011F009C012F0075090
:1018A000D76ED59AD586F28AF294F184D58EE55218
:1018B000E7CFD9FF1200D59E120013681468156A8D
:1018C00028C116F029C117F0186A1650135C106E63
:1018D00017501458116E18501558126E0C6A010EDC
:1018E0000D6E0E6A10C007F011C008F012C009F0AA
:1018F000FEEC16F00350D66E13681468156A28C102
:1019000016F029C117F0186A1650135C106E1750A4
:101910001458116E18501558126E0C6A010E0D6E87
:101920000E6A10C007F011C008F012C009F0FEECFA
:1019300016F007C010F008C011F009C012F00750EF
:10194000D76ED58E1200D9CFE6FFE1CFD9FFCD906B
:10195000FD0EDBCF2AF1FE0EDBCF2BF113681468EE
:10196000156A2AC116F02BC117F0186A1650135CBD
:10197000106E17501458116E18501558126E0C6ACC
:10198000010E0D6E0E6A10C007F011C008F012C0F3
:1019900009F0FEEC16F00750CF6E13681468156A54
:1019A0002AC116F02BC117F0186A1650135C106E7E
:1019B00017501458116E18501558126E0C6A010EFB
:1019C0000D6E0E6A10C007F011C008F012C009F0C9
:1019D000FEEC16F003C010F004C011F005C012F0C8
:1019E0000350CE6E9D809E909F90CD8ECD8CCD98D5
:1019F000CD9ACD96CD92CD80E552E7CFD9FF12009A
:101A000013681468156A2AC116F02BC117F0186AFA
:101A10001650135C106E17501458116E185015584C
:101A2000126E0C6A010E0D6E0E6A10C007F011C026
:101A300008F012C009F0FEEC16F00750CF6E1368E4
:101A40001468156A2AC116F02BC117F0186A1650CF
:101A5000135C106E17501458116E18501558126EF2
:101A60000C6A010E0D6E0E6A10C007F011C008F06E
:101A700012C009F0FEEC16F003C010F004C011F023
:101A800005C012F00350CE6ECD801200CD90120032
:101A9000D9CFE6FFE1CFD9FFCA94CC6AFE0EDB5066
:101AA00001012C6F2D6BCB6E9D829E929F92CA90EE
:101AB000CA92CA84E552E7CFD9FF12002CC1CBFFEE
:101AC000CA841200CA941200D9CFE6FFE1CFD9FF31
:101AD000B190FD0EDBCF2EF1FE0EDBCF2FF11368A0
:101AE0001468156A2EC116F02FC117F0186A165027
:101AF000135C106E17501458116E18501558126E52
:101B00000C6A010E0D6E0E6A10C007F011C008F0CD
:101B100012C009F0FEEC16F00750B36E136814689B
:101B2000156A2EC116F02FC117F0186A1650135CF3
:101B3000106E17501458116E18501558126E0C6A0A
:101B4000010E0D6E0E6A10C007F011C008F012C031
:101B500009F0FEEC16F003C010F004C011F005C04F
:101B600012F00350B26EA082A192A292B18EB198EF
:101B7000B19AB192B180E552E7CFD9FF1200136854
:101B80001468156A2EC116F02FC117F0186A165086
:101B9000135C106E17501458116E18501558126EB1
:101BA0000C6A010E0D6E0E6A10C007F011C008F02D
:101BB00012C009F0FEEC16F00350B26E1368146800
:101BC000156A2EC116F02FC117F0186A1650135C53
:101BD000106E17501458116E18501558126E0C6A6A
:101BE000010E0D6E0E6A10C007F011C008F012C091
:101BF00009F0FEEC16F007C010F008C011F009C0A3
:101C000012F00750B36EB1801200B19012000101C2
:101C1000382B000E39234051385D4151395904E3C6
:101C2000386B396B010E306F120001013A2B000E38
:101C30003B2342513A5D43513B5904E33A6B3B6BC2
:101C4000010E316F120001013C2B000E3D23445167
:101C50003C5D45513D5904E33C6B3D6B010E326FD9
:101C6000120001013E2B000E3F2346513E5D4751BD
:101C70003F5904E33E6B3F6B010E336F1200D9CF27
:101C8000E6FFE1CFD9FFFD0EDBCF40F1FE0EDBCF4B
:101C900041F10101386B396B306BE552E7CFD9FF69
:101CA0001200D9CFE6FFE1CFD9FFFD0EDBCF42F125
:101CB000FE0EDBCF43F1050E0D6E0E6A42C108F039
:101CC00043C109F0D8EC16F008C042F109C043F155
:101CD00001013A6B3B6B316BE552E7CFD9FF120044
:101CE000D9CFE6FFE1CFD9FFFD0EDBCF44F1FE0EE9
:101CF000DBCF45F1050E0D6E0E6A44C108F045C1FB
:101D000009F0D8EC16F008C044F109C045F1010112
:101D10003C6B3D6B326BE552E7CFD9FF1200D9CF58
:101D2000E6FFE1CFD9FFFD0EDBCF46F1FE0EDBCFA4
:101D300047F10A0E0D6E0E6A46C108F047C109F060
:101D4000D8EC16F008C046F109C047F101013E6B1E
:0C1D50003F6B336BE552E7CFD9FF120068
:041D5C00D9CFE6FFF6
:101D6000E1CFD9FF020EE126DE6ADD6A61D8E80E16
:101D7000E66E030EE66E13D8E552E5520101330517
:101D8000FDE1320EE66EE66A8FEC0EF0E552E552AA
:101D900082D859D9C5EC08F0E6EC04F0EFD7D9CFDA
:101DA000E6FFE1CFD9FF040EE126DE6ADD6ADECF71
:101DB00010F0DDCF11F0FD0EDBCF12F0FE0EDBCF09
:101DC00013F011501318E8AE02D0133404D012509F
:101DD000105C135011581DE2020EDB6A030EDB6A21
:101DE000020EDBCF10F0030EDBCF11F0D8901150B4
:101DF00004E6EE0E105C000E115806E2020EDB2A1D
:101E0000030EEEE3DB2AECD7DF2A010ED0E3DB2A58
:101E1000CED7040EE15C02E2E16AE552E16EE552E2
:101E2000E7CFD9FF1200956A836A936A816A12002C
:101E300001015E69F8DF64EC13F00A0EE66EE66AF3
:101E4000E66EE66AD6EC12F0E552E552E552E5524E
:101E500016EC01F011EC08F09CEC14F096EC15F087
:101E6000C0EC02F0B7EC04F0F40EE66E010EE66E84
:101E700096DFE552E552660EE66EB70EE66E64EC4E
:101E80000DF0E552E552320EE66EE66A8FEC0EF08A
:101E9000E552E552120001015E51030A01E1B0D0A2
:101EA000010A01E188D0030A64E0010A31E0FF0A77
:101EB00001E012005FC164F15F516025616F5FC195
:101EC00062F195EC13F0CCEC13F001016151E66E78
:101ED000E66A81EC12F0E552E552BF0EE66E300E76
:101EE000E66EE66AE66A3BEC07F0E552E552E5523B
:101EF000E552AE0EE66E300EE66EE66A010EE66E56
:101F00003BEC07F0E552E552E552E552010198D06D
:101F10006151E66EE66A81EC12F0E552E55201018C
:101F20006551000805E361076207140E656F6407D9
:101F300065076451000809E3C1EC13F060C164F166
:101F400060C162F10101010E5E6F070EE66EE66A86
:101F5000B3EC0AF0E552E552000974E064EC13F0CA
:101F600095EC13F0B6EC13F001010A0E666FC80E83
:101F700045D06151E66EE66A81EC12F0E552E55219
:101F800001016551000805E361076207140E656FE2
:101F9000640765076451000855E35FC164F1ABEC69
:101FA00013F0B6EC13F05FC161F101015F516025E0
:101FB000626F020E23D06151E66EE66A81EC12F088
:101FC000E552E55201016551000805E3610762072A
:101FD000140E656F640765076451000833E360C140
:101FE00064F1320EE66EE66A8FEC0EF0E552E552D1
:101FF000A0EC13F060C161F10101030E5E6F1200ED
:102000006151E66EE66A81EC12F0E552E55201019B
:102010006551000805E361076207140E656F6407E8
:102020006507645100080EE35FC164F195EC13F09D
:10203000CCEC13F001015F516025616F5FC162F16B
:102040005E6B1200120001015E51CB0A25E0010A0D
:1020500020E0030A1AE0010A01E012006651E66E70
:10206000E66A81EC12F0E552E55201016551000883
:1020700006E3140E656F74EC13F001016607650743
:10208000665100080DE35E69120095EC13F0C1EF94
:1020900013F0ABEC13F002D0A0EC13F0B6EF13F09A
:1020A000120001016B0508E16B6B0001855104E131
:1020B00081C05FF182C060F16AC110F0116A126ADA
:1020C000136A6AC1E6FF11C0E6FF12C0E6FF13C043
:1020D000E6FF0F0EE66EE66A14EC06F0146E060ECE
:0620E000E15E1450120045
:0A20E600D9CFE6FFE1CFD9FF020ECB
:1020F000E126FE0EDB500F0BDF6EFE0EDB380F0B02
:102100000A0D010EF3CFDBFFDB50DF24106E020E51
:10211000E15C02E2E16AE552E16E1050E552E7CF80
:10212000D9FF1200D9CFE6FFE1CFD9FF020EE12699
:102130000A0E106E0E6EFE0EDBCF09F0A4EC18F046
:102140000550DF6E0A0E106E0E6EFE0EDBCF09F02C
:10215000A4EC18F00950100D010EF3CFDBFFDB509B
:10216000DF24106E020EE15C02E2E16AE552E16EEC
:102170001050E552E7CFD9FF120094869488C79E8D
:10218000C79CC690C692C694C686310EC86EC68AD3
:102190001200D9CFE6FFE1CFD9FF9E96FE0EDB50AD
:1021A000D00FC96E9EA6FED7E552E7CFD9FF120029
:1021B000D9CFE6FFE1CFD9FF9E96FE0EDB50A00FF0
:1021C000C96E9EA6FED7E552E7CFD9FF12009E96B4
:1021D000C5809EA6FED712009E96C5849EA6FED7F9
:1021E0001200D9CFE6FFE1CFD9FF9E96FE0EDB505D
:1021F000C96E9EA6FED7E552E7CFD9FF12009E9684
:10220000C5869EA6FED7C95012009E96C59AC5885F
:102210009EA6FED712009E96C58AC5889EA6FED7AA
:102220001200D9CFE6FFE1CFD9FFD1DFE66AB1DFF7
:10223000E5520101010E896FE85004E0C550400BE2
:10224000FAE0F8D7FE0EDBCFE6FFCBDFE552010167
:10225000010E896FE85004E0C550400BFAE0F8D752
:10226000FD0EDBCFE6FF5EDFE552E66EBADFE5523C
:102270000101010E896FE85004E0C550400BFAE0FF
:10228000F8D7AADFE552E7CFD9FF1200D9CFE6FF92
:10229000E1CFD9FF9CDFE66A8BDFE5520101010E39
:1022A000896FE85004E0C550400BFAE0F8D7FE0E05
:1022B000DBCFE6FF96DFE5520101010E896FE850A2
:1022C00004E0C550400BFAE0F8D7FD0EDBCF10F06C
:1022D000FE0EDBCF11F00001116A1050E66E81DFB7
:1022E000E5520101010E896FE85004E0C550400B32
:1022F000FAE0F8D7FC0EDBCFE6FF73DFE552010111
:10230000010E896FE85004E0C550400BFAE0F8D7A1
:1023100063DFE552E7CFD9FF1200D9CFE6FFE1CF67
:10232000D9FFE65254DFE66A34DFE5520101010EBF
:10233000896FE85004E0C550400BFAE0F8D7FE0E74
:10234000DBCFE6FF4EDFE5520101010E896FE85059
:1023500004E0C550400BFAE0F8D739DF010EE66E15
:1023600018DFE5520101010E896FE85004E0C55005
:10237000400BFAE0F8D743DFDF6EDFCFE6FFB3DED6
:10238000E552DF6EDF50E552E552E7CFD9FF12008C
:10239000D9CFE6FFE1CFD9FFE65219DFE66A08DFC1
:1023A000E5520101010E896FE85004E0C550400B71
:1023B000FAE0F8D7FE0EDBCFE6FF13DFE5520101AE
:1023C000010E896FE85004E0C550400BFAE0F8D7E1
:1023D000FD0EDBCF10F0FE0EDBCF11F00001116A15
:1023E0001050E66EFEDEE5520101010E896FE850E5
:1023F00004E0C550400BFAE0F8D7E9DE010EE66EC6
:10240000D7DEE5520101010E896FE85004E0C550A6
:10241000400BFAE0F8D7F3DEDF6EDF50E552E5520D
:06242000E7CFD9FF120016
:0A242600D9CFE6FFE1CFD9FF060E83
:10243000E126DE6ADD6AFD0EDBCFE9FFFE0EDBCFB3
:10244000EAFFD890E936EA36480EE926010EEA227C
:10245000040EEECFDBFF050EEDCFDBFF8396DECF64
:1024600010F0DDCF11F0D890115004E6080E105C8A
:10247000000E11583CE2800EE76E040EDBCF10F028
:10248000050EE7501016116A020E10C0DBFF030E96
:1024900011C0DBFF040EDBCF10F0050EDBCF11F017
:1024A000D89010361136040E10C0DBFF050E11C097
:1024B000DBFFD950020FE96EDACFEAFF800EEE188B
:1024C00001E1ED5002E0000E01D0010EE8B083847E
:1024D000E8A083948386010EE66EE66AAAD8E552E8
:1024E000E5528396DF2A010EBAE3DB2AB8D7060E3F
:1024F000E15C02E2E16AE552E16EE552E7CFD9FF25
:102500001200D9CFE6FFE1CFD9FF040EE1260A0E73
:10251000106E116AFD0EDBCF08F0FE0EDBCF09F066
:1025200010C00DF011C00EF0D8EC16F008C0DEFFA0
:1025300009C0DDFFFD0EDBCF10F0FE0EDBCF11F08A
:102540000A0E0D6E0E6A10C008F011C009F0D8EC2A
:1025500016F004C010F005C011F0020E04C0DBFF3D
:10256000030E05C0DBFFD9CFE9FFDACFEAFFEE505B
:10257000ED1003E10A0EDE6EDD6A020EDBCFE6FF30
:10258000030EDBCFE6FFDECFE6FFDDCFE6FF0ED8A2
:10259000E552E552E552E552040EE15C02E2E16AE1
:1025A000E552E16EE552E7CFD9FF1200D9CFE6FF41
:1025B000E1CFD9FF83980A0EE66EE66A34DFE55272
:1025C000E552FD0EDBCFE6FFFE0EDBCFE6FF2BDF95
:1025D000E552E5528388010EE66EE66A2AD8E55296
:1025E000E5528398010EE66EE66A23D8E552E5527D
:1025F000FB0EDBCFE6FFFC0EDBCFE6FF14DFE55280
:10260000E5520A0EE66EE66A0EDFE552E552838871
:10261000010EE66EE66A0DD8E552E5528398010E8A
:10262000E66EE66A06D8E552E552E552E7CFD9FFF5
:102630001200D9CFE6FFE1CFD9FF040EE126DE6A12
:10264000DD6ADECF10F0DDCF11F0FD0EDBCF12F032
:10265000FE0EDBCF13F011501318E8AE02D0133486
:1026600004D01250105C135011581DE2020EDB6AA8
:10267000030EDB6A020EDBCF10F0030EDBCF11F08E
:10268000D890115004E6EE0E105C000E115806E2D0
:10269000020EDB2A030EEEE3DB2AECD7DF2A010E63
:1026A000D0E3DB2ACED7040EE15C02E2E16AE55218
:0A26B000E16EE552E7CFD9FF1200FA
:0626BA00FF0EE66EE66A69
:1026C000DDD8E552E5521200000EE66EE66AD6D875
:1026D000E552E5521200F8DF01018A1DE66EE66A56
:1026E000CDD8E552E5521200480E01018A198A6FD1
:1026F000E850E66EE66AC2D8E552E5521200240EB2
:1027000001018A198A6FE850E66EE66AB7D8E55289
:10271000E5521200120E01018A198A6FE850E66E26
:10272000E66AACD8E552E5521200F00E01018A17B4
:102730008A878A51E66EE66AA1D8E552E552120010
:10274000F00E01018A178A858A51E66EE66A96D8EC
:10275000E552E5521200F00E01018A178A838A5170
:10276000E66EE66A8BD8E552E55212000F0E0101C3
:102770008A178A8D8A51E66EE66A80D8E552E5525C
:1027800012000F0E01018A178A8B8A51E66EE66AE3
:1027900075D8E552E55212000F0E01018A178A8999
:1027A0008A51E66EE66A6AD8E552E5521200D9CF40
:1027B000E6FFE1CFD9FF060EE126DE6ADD6AFD0EF7
:1027C000DBCF08F0FE0EDBCF09F0040E08C0DBFF04
:1027D000050E09C0DBFF8192DECF10F0DDCF11F0D6
:1027E000D890115004E6080E105C000E11583CE21F
:1027F000800EE76E040EDBCF10F0050EE7501016CA
:10280000116A020E10C0DBFF030E11C0DBFF040EC5
:10281000DBCF10F0050EDBCF11F0D890103611365B
:10282000040E10C0DBFF050E11C0DBFFD950020FF4
:10283000E96EDACFEAFF800EEE1801E1ED5002E01A
:10284000000E01D0010EE8B08180E8A08190818265
:10285000010EE66EE66A2CD8E552E5528192DF2A37
:10286000010EBAE3DB2AB8D7060EE15C02E2E16AA8
:10287000E552E16EE552E7CFD9FF1200D9CFE6FF6E
:10288000E1CFD9FF8390FD0EDBCFE6FFFE0EDBCF5D
:10289000E6FF8DDFE552E5528380010EE66EE66AC3
:1028A00007D8E552E5528390E552E7CFD9FF1200F1
:1028B000D9CFE6FFE1CFD9FF040EE126DE6ADD6A5B
:1028C000DECF10F0DDCF11F0FD0EDBCF12F0FE0EEB
:1028D000DBCF13F011501318E8AE02D0133404D03C
:1028E0001250105C135011581DE2020EDB6A030EE9
:1028F000DB6A020EDBCF10F0030EDBCF11F0D890B5
:10290000115004E6EE0E105C000E115806E2020EA5
:10291000DB2A030EEEE3DB2AECD7DF2A010ED0E33D
:10292000DB2ACED7040EE15C02E2E16AE552E16EF9
:08293000E552E7CFD9FF1200C8
:08293800F28ED08EF28C120029
:10294000F19CF292F2881200D8CFE4FFE0CFE4FFCE
:10295000E46EDACFE4FFE2CFDAFFE9CFE4FFEACFBB
:10296000E4FFF6CFE4FFF7CFE4FFF5CFE4FFF3CFCA
:10297000E4FFF4CFE4FFFACFE4FF00EE00F0100E26
:10298000E80403E3EECFE4FFFBD700EE10F00A0EFD
:10299000E80403E3EECFE4FFFBD7E652F2A407D04E
:1029A0005BEC0CF0F2945DEC0CF007EC0EF09EA0EA
:1029B00007D046EC0DF09E9000EC0DF015EC0EF0FB
:1029C0009EA207D062EC0DF09E925EEC0DF023EC1F
:1029D0000EF0A1A207D005EC0EF0A192BFEC0DF015
:1029E00031EC0EF0F2B2F2929EAA03D09E9A3DEC28
:1029F00016F0E55200EE19F00A0EE80403E3E5CF05
:102A0000EDFFFBD700EE0FF0100EE80403E3E5CF77
:102A1000EDFFFBD7E5CFFAFFE5CFF4FFE5CFF3FFFE
:102A2000E5CFF5FFE5CFF7FFE5CFF6FFE5CFEAFF0E
:102A3000E5CFE9FFE5CFDAFFE550E5CFE0FFE5CFF1
:102A4000D8FF1000DACFE4FFE2CFDAFFE9CFE4FFEE
:102A5000EACFE4FFF6CFE4FFF7CFE4FFF5CFE4FFE2
:102A6000F3CFE4FFF4CFE4FFFACFE4FF00EE00F091
:102A7000100EE80403E3EECFE4FFFBD700EE10F006
:102A80000A0EE80403E3EECFE4FFFBD7E652F2A41C
:102A900007D05BEC0CF0F2945DEC0CF007EC0EF060
:102AA0009EA007D046EC0DF09E9000EC0DF015ECCA
:102AB0000EF09EA207D062EC0DF09E925EEC0DF03F
:102AC00023EC0EF0A1A207D005EC0EF0A192BFEC12
:102AD0000DF031EC0EF0F2B2F2929EAA03D09E9A63
:102AE0003DEC16F0E55200EE19F00A0EE80403E39F
:102AF000E5CFEDFFFBD700EE0FF0100EE80403E387
:102B0000E5CFEDFFFBD7E5CFFAFFE5CFF4FFE5CF4B
:102B1000F3FFE5CFF5FFE5CFF7FFE5CFF6FFE5CF14
:0C2B2000EAFFE5CFE9FFE5CFDAFF110086
:042B2C00B06A810EFC
:102B3000AF6EAC8AAC94B886AC98AB8EAB889E9ADC
:102B40009D8A9F9A949C948E1200D9CFE6FFE1CF84
:102B5000D9FF040EE126DE6ADD6ADECF10F0DDCF9C
:102B600011F0FD0EDBCF12F0FE0EDBCF13F0115093
:102B70001318E8AE02D0133404D01250105C135076
:102B800011581DE2020EDB6A030EDB6A020EDBCF78
:102B900010F0030EDBCF11F0D890115004E6EE0ECA
:102BA000105C000E115806E2020EDB2A030EEEE363
:102BB000DB2AECD7DF2A010ED0E3DB2ACED7040EC6
:102BC000E15C02E2E16AE552E16EE552E7CFD9FF4E
:102BD0001200D9CFE6FFE1CFD9FF9EA8FED7FE0EA7
:102BE000DB50AD6E9E98E552E7CFD9FF1200D9CFEA
:102BF000E6FFE1CFD9FFFD0EDBCFE9FFFE0EDBCF15
:102C0000EAFFEF5010E0FD0EDBCFE9FFFE0EDBCF59
:102C1000EAFFEF50E66EDDDFE552FD0EDB2AFE0E29
:102C2000EAE3DB2AE8D7E552E7CFD9FF1200D9CF94
:102C3000E6FFE1CFD9FFFD0EDBCFF6FFFE0EDBCFC7
:102C4000F7FF0800F55015E0FD0EDBCFF6FFFE0E96
:102C5000DBCFF7FF0800F550E66EBBDFE552FD0E57
:102C6000DBCFF6FFDB2AFE0EDBCFF7FFE4E3DB2A48
:0E2C7000E2D7E552E7CFD9FF12003FEF16F092
:022C7E00D9CFAC
:102C8000E6FFE1CFD9FFE652AE50DF6EDFCFE6FFC1
:102C9000E9EC15F0E55201016A51050A2AE0010A42
:102CA00021E0070A11E0010A0AE0020A02E0010A33
:102CB0002AE1FE0EDF5C28E16D6B020E22D0FE0ED3
:102CC000DF5C15E1030E1DD06D51EA6A810FE96EDC
:102CD000000EEA22DFCFEFFF6D2B6F516D5D14E325
:102CE000040E0FD0FF0EDF5C02E1050E0AD0010ECC
:102CF00008D0FF0EDF5C04E1010E6B6F6A6B04D03D
:102D0000010E6A6F01D06A6BE552E552E7CFD9FF39
:102D10001200120001016B054AE1CF0EE66E300E83
:102D2000E66EE66AE66A3BEC07F0E552E552E552EC
:102D3000E5520001806B01016F510001805D21E2CD
:102D40008051EA6A810FE96E000EEA22EFCF10F09F
:102D5000116A126A136A10C0E6FF11C0E6FF12C0C2
:102D6000E6FF13C0E6FF030E8003F350E66EE66A4B
:102D700014EC06F0146E060EE15E14500001802B78
:102D8000DAD76AC110F0116A126A136A6AC1E6FFE3
:102D900011C0E6FF12C0E6FF13C0E6FF0F0EE66E9D
:102DA000E66A14EC06F0146E060EE15E1450120092
:102DB000006A0EAEE1EF16F00D6C0E1EE86A0E22F0
:102DC000001E09AEE9EF16F0086C091EE86A092238
:102DD000001E70EC18F009BEF9EF16F000AE000C02
:102DE000086C091EE86A0922046C051EE86A0522BF
:102DF000000C00BEF0EF16F00188FF0C006A0EAE6A
:102E000009EF17F00C6C0D1E0E1EE86A0D220E2243
:102E1000001E09AE13EF17F0076C081E091EE86AC2
:102E200008220922001E1EEC18F009BE26EF17F03A
:102E300000AE000C076C081E091EE86A0822092271
:102E4000036C041E051E04220522000C00BE1AEFAE
:062E500017F00188FF0CE1
:0A2E56001E0EF66E000EF76E000E61
:102E6000F86E01010900F550806F0900F550816F7F
:102E700003E1806701D03DD00900F5507B6F090068
:102E8000F5507C6F0900F5507D6F09000900F55081
:102E9000E96E0900F550EA6E090009000900F550D5
:102EA0007E6F0900F5507F6F09000900F6CF82F1AF
:102EB000F7CF83F1F8CF84F17BC1F6FF7CC1F7FF38
:102EC0007DC1F8FF01017E5302E17F5307E0090055
:102ED000F550EE6E7E07F8E27F07F9D782C1F6FF64
:102EE00083C1F7FF84C1F8FF01018007000E815BF9
:042EF000BFD7120036
:0C2EF400010E926E0E0EC16EC26A040E3A
:102F0000C06EC2801200D9CFE6FFE1CFD9FF020E1A
:102F1000E126DE6ADD6AC282C2B2FED7C450DE6E2E
:102F2000DD6ADECF12F0DDCF13F0D8901236133603
:102F3000D89012361336060EC3CFE7FF070B04E016
:102F4000E742E79EE806FCE1E7501224106E000E0F
:102F5000132010C0DEFFDD6EDECF61FFDDCF62FF2C
:102F6000DECF10F0DDCF11F010C0F3FF11C0F4FF81
:102F7000020EE15C02E2E16AE552E16EE552E7CF62
:042F8000D9FF120063
:0C2F840006500B02F3CF02F0F4CF03F074
:102F90000C02F3500326000EF420046E06500D02BE
:102FA000F3500426000EF420056E06500E02F35076
:102FB000052607500B02F3500326F4500422000E9E
:102FC000052207500C02F3500426F4500522075046
:102FD0000D02F350052608500B02F3500426F4505E
:102FE000052208500C02F350052609500B02F3503D
:042FF00005261200A0
:0C2FF400056A046A036A026A200EE76E98
:10300000D8900636073608360936023603360436B7
:1030100005360B50025C0C5003580D5004580E50EE
:10302000055809E30B50025E0C50035A0D50045A28
:0C3030000E50055A062AE72EE4D71200C5
:04303C00056A046AB3
:10304000036A180EE76ED89007360836093603363D
:10305000043605360C50035C0D5004580E500558CC
:1030600007E30C50035E0D50045A0E50055A072A10
:06307000E72EEAD7120072
:0A307600CA94CA90CA829B0ECB6E6A
:10308000BD98BD9ABE6ABD9CBD9EBD90BD92BD84DB
:10309000BD869494CA841200D9CFE6FFE1CFD9FF50
:0E30A000FE0EDB50BE6EE552E7CFD9FF1200E8
:0230AE00535974
:1030B0005354454D275320574F524B494E470054C8
:1030C0005241464649432050524F4A4543540020FE
:1030D0002020202020202020202020202020200010
:1030E000056A046A100EE76ED89008360936043671
:1030F00005360D50045C0E50055805E30D50045E76
:0C3100000E50055A082AE72EF0D71200E6
:04310C00800EF36ED0
:1031100000EE00F00F0E01D81200EA6002D0EE6A55
:0C312000FCD7F350E9601200EE6AFCD707
:04312C001EEE00F0A3
:103130002EEE00F0F86A019C2BEC17F003EC00F087
:08314000AEEC0EF0FBD712000B
:08314800056A080EE76ED8903D
:10315000093605360E50055C02E3056E092AE72E96
:04316000F7D712008B
:0C3164000000000000000000000000005F
:10317000000000000000000000000000010001004D
:043180000100010049
:0C31840000000000000000050500000035
:073190000000000000000038
:09319700C0FFF9FFA4FFB0FF998D
:1031A000FF92FF82FFF8FF80FF90FFFFFFFF030207
:0731B00005030000140000FC
:0931B700000000000000000010FF
:1031C0001010101010101018181818181818181CB3
:1031D0001C1C1C1C1C1C1C1E1E1E1E1E1E1E1E1F1C
:1031E0001F1F1F1F1F1F1F00000000000000000006
:1031F00000000000000000000000000000000000CF
:1032000000000000000000000000000000000000BE
:083210000000000000000000B6
:08321800000000D00022222278
:103220000725091000010000000000000000000058
:033230000000009B
:0D323300000000000000000000000000008E
:10324000000000000000000000000000000000007E
:0B325000000000102040800102040874
:020000040030CA
:0100010002FC
:0100020003FA
:010003001EDE
:010005008179
:010006008178
:010008000FE8
:01000900C036
:01000A000FE6
:01000B00E014
:01000C000FE4
:01000D0040B2
:00000001FF
